{
  "contractName": "TykCoinTest",
  "abi": [
    {
      "constant": true,
      "inputs": [],
      "name": "name",
      "outputs": [
        {
          "name": "",
          "type": "string"
        }
      ],
      "payable": false,
      "stateMutability": "view",
      "type": "function"
    },
    {
      "constant": false,
      "inputs": [
        {
          "name": "_spender",
          "type": "address"
        },
        {
          "name": "_value",
          "type": "uint256"
        }
      ],
      "name": "approve",
      "outputs": [
        {
          "name": "",
          "type": "bool"
        }
      ],
      "payable": false,
      "stateMutability": "nonpayable",
      "type": "function"
    },
    {
      "constant": true,
      "inputs": [],
      "name": "totalSupply",
      "outputs": [
        {
          "name": "",
          "type": "uint256"
        }
      ],
      "payable": false,
      "stateMutability": "view",
      "type": "function"
    },
    {
      "constant": false,
      "inputs": [
        {
          "name": "_from",
          "type": "address"
        },
        {
          "name": "_to",
          "type": "address"
        },
        {
          "name": "_value",
          "type": "uint256"
        }
      ],
      "name": "transferFrom",
      "outputs": [
        {
          "name": "",
          "type": "bool"
        }
      ],
      "payable": false,
      "stateMutability": "nonpayable",
      "type": "function"
    },
    {
      "constant": true,
      "inputs": [],
      "name": "decimals",
      "outputs": [
        {
          "name": "",
          "type": "uint8"
        }
      ],
      "payable": false,
      "stateMutability": "view",
      "type": "function"
    },
    {
      "constant": false,
      "inputs": [
        {
          "name": "_spender",
          "type": "address"
        },
        {
          "name": "_subtractedValue",
          "type": "uint256"
        }
      ],
      "name": "decreaseApproval",
      "outputs": [
        {
          "name": "",
          "type": "bool"
        }
      ],
      "payable": false,
      "stateMutability": "nonpayable",
      "type": "function"
    },
    {
      "constant": true,
      "inputs": [
        {
          "name": "_owner",
          "type": "address"
        }
      ],
      "name": "balanceOf",
      "outputs": [
        {
          "name": "",
          "type": "uint256"
        }
      ],
      "payable": false,
      "stateMutability": "view",
      "type": "function"
    },
    {
      "constant": false,
      "inputs": [],
      "name": "renounceOwnership",
      "outputs": [],
      "payable": false,
      "stateMutability": "nonpayable",
      "type": "function"
    },
    {
      "constant": true,
      "inputs": [],
      "name": "owner",
      "outputs": [
        {
          "name": "",
          "type": "address"
        }
      ],
      "payable": false,
      "stateMutability": "view",
      "type": "function"
    },
    {
      "constant": true,
      "inputs": [],
      "name": "symbol",
      "outputs": [
        {
          "name": "",
          "type": "string"
        }
      ],
      "payable": false,
      "stateMutability": "view",
      "type": "function"
    },
    {
      "constant": false,
      "inputs": [
        {
          "name": "_to",
          "type": "address"
        },
        {
          "name": "_value",
          "type": "uint256"
        }
      ],
      "name": "transfer",
      "outputs": [
        {
          "name": "",
          "type": "bool"
        }
      ],
      "payable": false,
      "stateMutability": "nonpayable",
      "type": "function"
    },
    {
      "constant": false,
      "inputs": [
        {
          "name": "_spender",
          "type": "address"
        },
        {
          "name": "_addedValue",
          "type": "uint256"
        }
      ],
      "name": "increaseApproval",
      "outputs": [
        {
          "name": "",
          "type": "bool"
        }
      ],
      "payable": false,
      "stateMutability": "nonpayable",
      "type": "function"
    },
    {
      "constant": true,
      "inputs": [
        {
          "name": "_owner",
          "type": "address"
        },
        {
          "name": "_spender",
          "type": "address"
        }
      ],
      "name": "allowance",
      "outputs": [
        {
          "name": "",
          "type": "uint256"
        }
      ],
      "payable": false,
      "stateMutability": "view",
      "type": "function"
    },
    {
      "constant": false,
      "inputs": [
        {
          "name": "_newOwner",
          "type": "address"
        }
      ],
      "name": "transferOwnership",
      "outputs": [],
      "payable": false,
      "stateMutability": "nonpayable",
      "type": "function"
    },
    {
      "inputs": [],
      "payable": false,
      "stateMutability": "nonpayable",
      "type": "constructor"
    },
    {
      "anonymous": false,
      "inputs": [
        {
          "indexed": true,
          "name": "previousOwner",
          "type": "address"
        }
      ],
      "name": "OwnershipRenounced",
      "type": "event"
    },
    {
      "anonymous": false,
      "inputs": [
        {
          "indexed": true,
          "name": "previousOwner",
          "type": "address"
        },
        {
          "indexed": true,
          "name": "newOwner",
          "type": "address"
        }
      ],
      "name": "OwnershipTransferred",
      "type": "event"
    },
    {
      "anonymous": false,
      "inputs": [
        {
          "indexed": true,
          "name": "owner",
          "type": "address"
        },
        {
          "indexed": true,
          "name": "spender",
          "type": "address"
        },
        {
          "indexed": false,
          "name": "value",
          "type": "uint256"
        }
      ],
      "name": "Approval",
      "type": "event"
    },
    {
      "anonymous": false,
      "inputs": [
        {
          "indexed": true,
          "name": "from",
          "type": "address"
        },
        {
          "indexed": true,
          "name": "to",
          "type": "address"
        },
        {
          "indexed": false,
          "name": "value",
          "type": "uint256"
        }
      ],
      "name": "Transfer",
      "type": "event"
    }
  ],
  "bytecode": "0x60c0604052600860808190527f54796b20436f696e00000000000000000000000000000000000000000000000060a090815261003e916004919061010f565b506040805180820190915260038082527f54594b000000000000000000000000000000000000000000000000000000000060209092019182526100839160059161010f565b506006805460ff1916601217905534801561009d57600080fd5b50600380546402540be400600181905533600160a060020a031992831681179092168217909255600081815260208181526040808320859055805194855251929391927fddf252ad1be2c89b69c2b068fc378daa952ba7f163c4a11628f55a4df523b3ef9281900390910190a36101aa565b828054600181600116156101000203166002900490600052602060002090601f016020900481019282601f1061015057805160ff191683800117855561017d565b8280016001018555821561017d579182015b8281111561017d578251825591602001919060010190610162565b5061018992915061018d565b5090565b6101a791905b808211156101895760008155600101610193565b90565b610a33806101b96000396000f3006080604052600436106100cf5763ffffffff7c010000000000000000000000000000000000000000000000000000000060003504166306fdde0381146100d4578063095ea7b31461015e57806318160ddd1461019657806323b872dd146101bd578063313ce567146101e7578063661884631461021257806370a0823114610236578063715018a6146102575780638da5cb5b1461026e57806395d89b411461029f578063a9059cbb146102b4578063d73dd623146102d8578063dd62ed3e146102fc578063f2fde38b14610323575b600080fd5b3480156100e057600080fd5b506100e9610344565b6040805160208082528351818301528351919283929083019185019080838360005b8381101561012357818101518382015260200161010b565b50505050905090810190601f1680156101505780820380516001836020036101000a031916815260200191505b509250505060405180910390f35b34801561016a57600080fd5b50610182600160a060020a03600435166024356103d2565b604080519115158252519081900360200190f35b3480156101a257600080fd5b506101ab610438565b60408051918252519081900360200190f35b3480156101c957600080fd5b50610182600160a060020a036004358116906024351660443561043e565b3480156101f357600080fd5b506101fc6105b3565b6040805160ff9092168252519081900360200190f35b34801561021e57600080fd5b50610182600160a060020a03600435166024356105bc565b34801561024257600080fd5b506101ab600160a060020a03600435166106ab565b34801561026357600080fd5b5061026c6106c6565b005b34801561027a57600080fd5b50610283610734565b60408051600160a060020a039092168252519081900360200190f35b3480156102ab57600080fd5b506100e9610743565b3480156102c057600080fd5b50610182600160a060020a036004351660243561079e565b3480156102e457600080fd5b50610182600160a060020a036004351660243561087d565b34801561030857600080fd5b506101ab600160a060020a0360043581169060243516610916565b34801561032f57600080fd5b5061026c600160a060020a0360043516610941565b6004805460408051602060026001851615610100026000190190941693909304601f810184900484028201840190925281815292918301828280156103ca5780601f1061039f576101008083540402835291602001916103ca565b820191906000526020600020905b8154815290600101906020018083116103ad57829003601f168201915b505050505081565b336000818152600260209081526040808320600160a060020a038716808552908352818420869055815186815291519394909390927f8c5be1e5ebec7d5bd14f71427d1e84f3dd0314c0f7b2291e5b200ac8c7c3b925928290030190a350600192915050565b60015490565b600160a060020a03831660009081526020819052604081205482111561046357600080fd5b600160a060020a038416600090815260026020908152604080832033845290915290205482111561049357600080fd5b600160a060020a03831615156104a857600080fd5b600160a060020a0384166000908152602081905260409020546104d1908363ffffffff61096416565b600160a060020a038086166000908152602081905260408082209390935590851681522054610506908363ffffffff61097616565b600160a060020a03808516600090815260208181526040808320949094559187168152600282528281203382529091522054610548908363ffffffff61096416565b600160a060020a03808616600081815260026020908152604080832033845282529182902094909455805186815290519287169391927fddf252ad1be2c89b69c2b068fc378daa952ba7f163c4a11628f55a4df523b3ef929181900390910190a35060019392505050565b60065460ff1681565b336000908152600260209081526040808320600160a060020a038616845290915281205480831061061057336000908152600260209081526040808320600160a060020a0388168452909152812055610645565b610620818463ffffffff61096416565b336000908152600260209081526040808320600160a060020a03891684529091529020555b336000818152600260209081526040808320600160a060020a0389168085529083529281902054815190815290519293927f8c5be1e5ebec7d5bd14f71427d1e84f3dd0314c0f7b2291e5b200ac8c7c3b925929181900390910190a35060019392505050565b600160a060020a031660009081526020819052604090205490565b600354600160a060020a031633146106dd57600080fd5b600354604051600160a060020a03909116907ff8df31144d9c2f0f6b59d69b8b98abd5459d07f2742c4df920b25aae33c6482090600090a26003805473ffffffffffffffffffffffffffffffffffffffff19169055565b600354600160a060020a031681565b6005805460408051602060026001851615610100026000190190941693909304601f810184900484028201840190925281815292918301828280156103ca5780601f1061039f576101008083540402835291602001916103ca565b336000908152602081905260408120548211156107ba57600080fd5b600160a060020a03831615156107cf57600080fd5b336000908152602081905260409020546107ef908363ffffffff61096416565b3360009081526020819052604080822092909255600160a060020a03851681522054610821908363ffffffff61097616565b600160a060020a038416600081815260208181526040918290209390935580518581529051919233927fddf252ad1be2c89b69c2b068fc378daa952ba7f163c4a11628f55a4df523b3ef9281900390910190a350600192915050565b336000908152600260209081526040808320600160a060020a03861684529091528120546108b1908363ffffffff61097616565b336000818152600260209081526040808320600160a060020a0389168085529083529281902085905580519485525191937f8c5be1e5ebec7d5bd14f71427d1e84f3dd0314c0f7b2291e5b200ac8c7c3b925929081900390910190a350600192915050565b600160a060020a03918216600090815260026020908152604080832093909416825291909152205490565b600354600160a060020a0316331461095857600080fd5b61096181610989565b50565b60008282111561097057fe5b50900390565b8181018281101561098357fe5b92915050565b600160a060020a038116151561099e57600080fd5b600354604051600160a060020a038084169216907f8be0079c531659141344cd1fd0a4f28419497f9722a3daafe3b4186f6b6457e090600090a36003805473ffffffffffffffffffffffffffffffffffffffff1916600160a060020a03929092169190911790555600a165627a7a7230582066f76810d451ea7133f620edef257496cfa30e3bb8019914238454b30bd9d46b0029",
  "source": "pragma solidity ^0.4.24;\n\nimport 'openzeppelin-solidity/contracts/token/ERC20/ERC20.sol';\nimport 'openzeppelin-solidity/contracts/token/ERC20/StandardToken.sol';\nimport 'openzeppelin-solidity/contracts/ownership/Ownable.sol';\n\n/**\n * @title SimpleToken\n * @dev Very simple ERC20 Token example, where all tokens are pre-assigned to the creator.\n * Note they can later distribute these tokens as they wish using `transfer` and other\n * `ERC20` functions.\n */\n\ncontract TykCoinTest is StandardToken, Ownable {\n  string public  name = \"Tyk Coin\";\n  string public  symbol = \"TYK\";\n  uint8 public  decimals = 18;\n\n  constructor() public {\n      totalSupply_ = 10000000000;\n      owner = msg.sender;\n      balances[msg.sender] = totalSupply_;\n\n      emit Transfer(0x0, msg.sender, totalSupply_);\n  }\n\n}\n",
  "sourcePath": "/Users/bhumitsheth/Desktop/TykCoinTest/contracts/TykCoinTest.sol",
  "compiler": {
    "name": "solc",
    "version": "0.4.24+commit.e67f0147.Emscripten.clang"
  },
  "schemaVersion": "2.0.1",
  "updatedAt": "2018-09-28T20:00:03.669Z"
}